{
  "_format": "hh-sol-artifact-1",
  "contractName": "AuctionVault",
  "sourceName": "contracts/auction.sol",
  "abi": [
    {
      "inputs": [],
      "stateMutability": "nonpayable",
      "type": "constructor"
    },
    {
      "anonymous": false,
      "inputs": [
        {
          "indexed": true,
          "internalType": "address",
          "name": "user",
          "type": "address"
        },
        {
          "indexed": false,
          "internalType": "uint256",
          "name": "amount",
          "type": "uint256"
        }
      ],
      "name": "Deposited",
      "type": "event"
    },
    {
      "anonymous": false,
      "inputs": [
        {
          "indexed": true,
          "internalType": "address",
          "name": "user",
          "type": "address"
        },
        {
          "indexed": false,
          "internalType": "uint256",
          "name": "amount",
          "type": "uint256"
        }
      ],
      "name": "Withdrawn",
      "type": "event"
    },
    {
      "inputs": [
        {
          "internalType": "address",
          "name": "user",
          "type": "address"
        },
        {
          "internalType": "uint256",
          "name": "amount",
          "type": "uint256"
        }
      ],
      "name": "approveWithdrawal",
      "outputs": [],
      "stateMutability": "nonpayable",
      "type": "function"
    },
    {
      "inputs": [
        {
          "internalType": "address",
          "name": "",
          "type": "address"
        }
      ],
      "name": "balances",
      "outputs": [
        {
          "internalType": "uint256",
          "name": "",
          "type": "uint256"
        }
      ],
      "stateMutability": "view",
      "type": "function"
    },
    {
      "inputs": [],
      "name": "contractBalance",
      "outputs": [
        {
          "internalType": "uint256",
          "name": "",
          "type": "uint256"
        }
      ],
      "stateMutability": "view",
      "type": "function"
    },
    {
      "inputs": [],
      "name": "deposit",
      "outputs": [],
      "stateMutability": "payable",
      "type": "function"
    },
    {
      "inputs": [],
      "name": "owner",
      "outputs": [
        {
          "internalType": "address",
          "name": "",
          "type": "address"
        }
      ],
      "stateMutability": "view",
      "type": "function"
    }
  ],
  "bytecode": "0x608060405234801561001057600080fd5b50336000806101000a81548173ffffffffffffffffffffffffffffffffffffffff021916908373ffffffffffffffffffffffffffffffffffffffff1602179055506108d5806100606000396000f3fe60806040526004361061004a5760003560e01c806327e235e31461004f5780638b7afe2e1461008c5780638da5cb5b146100b7578063d0e30db0146100e2578063f4970e71146100ec575b600080fd5b34801561005b57600080fd5b506100766004803603810190610071919061050a565b610115565b6040516100839190610550565b60405180910390f35b34801561009857600080fd5b506100a161012d565b6040516100ae9190610550565b60405180910390f35b3480156100c357600080fd5b506100cc610135565b6040516100d9919061057a565b60405180910390f35b6100ea610159565b005b3480156100f857600080fd5b50610113600480360381019061010e91906105c1565b610242565b005b60016020528060005260406000206000915090505481565b600047905090565b60008054906101000a900473ffffffffffffffffffffffffffffffffffffffff1681565b6000341161019c576040517f08c379a00000000000000000000000000000000000000000000000000000000081526004016101939061065e565b60405180910390fd5b34600160003373ffffffffffffffffffffffffffffffffffffffff1673ffffffffffffffffffffffffffffffffffffffff16815260200190815260200160002060008282546101eb91906106ad565b925050819055503373ffffffffffffffffffffffffffffffffffffffff167f2da466a7b24304f47e87fa2e1e5a81b9831ce54fec19055ce277ca2f39ba42c4346040516102389190610550565b60405180910390a2565b60008054906101000a900473ffffffffffffffffffffffffffffffffffffffff1673ffffffffffffffffffffffffffffffffffffffff163373ffffffffffffffffffffffffffffffffffffffff16146102d0576040517f08c379a00000000000000000000000000000000000000000000000000000000081526004016102c79061072d565b60405180910390fd5b80600160008473ffffffffffffffffffffffffffffffffffffffff1673ffffffffffffffffffffffffffffffffffffffff168152602001908152602001600020541015610352576040517f08c379a000000000000000000000000000000000000000000000000000000000815260040161034990610799565b60405180910390fd5b80600160008473ffffffffffffffffffffffffffffffffffffffff1673ffffffffffffffffffffffffffffffffffffffff16815260200190815260200160002060008282546103a191906107b9565b9250508190555060008273ffffffffffffffffffffffffffffffffffffffff16826040516103ce9061081e565b60006040518083038185875af1925050503d806000811461040b576040519150601f19603f3d011682016040523d82523d6000602084013e610410565b606091505b5050905080610454576040517f08c379a000000000000000000000000000000000000000000000000000000000815260040161044b9061087f565b60405180910390fd5b8273ffffffffffffffffffffffffffffffffffffffff167f7084f5476618d8e60b11ef0d7d3f06914655adb8793e28ff7f018d4c76d505d58360405161049a9190610550565b60405180910390a2505050565b600080fd5b600073ffffffffffffffffffffffffffffffffffffffff82169050919050565b60006104d7826104ac565b9050919050565b6104e7816104cc565b81146104f257600080fd5b50565b600081359050610504816104de565b92915050565b6000602082840312156105205761051f6104a7565b5b600061052e848285016104f5565b91505092915050565b6000819050919050565b61054a81610537565b82525050565b60006020820190506105656000830184610541565b92915050565b610574816104cc565b82525050565b600060208201905061058f600083018461056b565b92915050565b61059e81610537565b81146105a957600080fd5b50565b6000813590506105bb81610595565b92915050565b600080604083850312156105d8576105d76104a7565b5b60006105e6858286016104f5565b92505060206105f7858286016105ac565b9150509250929050565b600082825260208201905092915050565b7f4465706f736974206d7573742062652067726561746572207468616e20300000600082015250565b6000610648601e83610601565b915061065382610612565b602082019050919050565b600060208201905081810360008301526106778161063b565b9050919050565b7f4e487b7100000000000000000000000000000000000000000000000000000000600052601160045260246000fd5b60006106b882610537565b91506106c383610537565b92508282019050808211156106db576106da61067e565b5b92915050565b7f4e6f7420617574686f72697a6564000000000000000000000000000000000000600082015250565b6000610717600e83610601565b9150610722826106e1565b602082019050919050565b600060208201905081810360008301526107468161070a565b9050919050565b7f496e73756666696369656e742062616c616e6365000000000000000000000000600082015250565b6000610783601483610601565b915061078e8261074d565b602082019050919050565b600060208201905081810360008301526107b281610776565b9050919050565b60006107c482610537565b91506107cf83610537565b92508282039050818111156107e7576107e661067e565b5b92915050565b600081905092915050565b50565b60006108086000836107ed565b9150610813826107f8565b600082019050919050565b6000610829826107fb565b9150819050919050565b7f5472616e73666572206661696c65640000000000000000000000000000000000600082015250565b6000610869600f83610601565b915061087482610833565b602082019050919050565b600060208201905081810360008301526108988161085c565b905091905056fea2646970667358221220d603269c3e0a6c08aa05d8860eba870c64fc7c9e23aa3137233a6f331bad275564736f6c63430008140033",
  "linkReferences": {},
  "deployedLinkReferences": {}
}