{
  "_format": "hh3-artifact-1",
  "contractName": "AuctionVault",
  "sourceName": "contracts/auction.sol",
  "abi": [
    {
      "inputs": [],
      "stateMutability": "nonpayable",
      "type": "constructor"
    },
    {
      "anonymous": false,
      "inputs": [
        {
          "indexed": true,
          "internalType": "address",
          "name": "user",
          "type": "address"
        },
        {
          "indexed": false,
          "internalType": "uint256",
          "name": "amount",
          "type": "uint256"
        }
      ],
      "name": "Deposited",
      "type": "event"
    },
    {
      "anonymous": false,
      "inputs": [
        {
          "indexed": true,
          "internalType": "address",
          "name": "user",
          "type": "address"
        },
        {
          "indexed": false,
          "internalType": "uint256",
          "name": "amount",
          "type": "uint256"
        }
      ],
      "name": "Withdrawn",
      "type": "event"
    },
    {
      "inputs": [
        {
          "internalType": "address",
          "name": "user",
          "type": "address"
        },
        {
          "internalType": "uint256",
          "name": "amount",
          "type": "uint256"
        }
      ],
      "name": "approveWithdrawal",
      "outputs": [],
      "stateMutability": "nonpayable",
      "type": "function"
    },
    {
      "inputs": [
        {
          "internalType": "address",
          "name": "",
          "type": "address"
        }
      ],
      "name": "balances",
      "outputs": [
        {
          "internalType": "uint256",
          "name": "",
          "type": "uint256"
        }
      ],
      "stateMutability": "view",
      "type": "function"
    },
    {
      "inputs": [],
      "name": "contractBalance",
      "outputs": [
        {
          "internalType": "uint256",
          "name": "",
          "type": "uint256"
        }
      ],
      "stateMutability": "view",
      "type": "function"
    },
    {
      "inputs": [],
      "name": "deposit",
      "outputs": [],
      "stateMutability": "payable",
      "type": "function"
    },
    {
      "inputs": [],
      "name": "owner",
      "outputs": [
        {
          "internalType": "address",
          "name": "",
          "type": "address"
        }
      ],
      "stateMutability": "view",
      "type": "function"
    }
  ],
  "bytecode": "0x6080604052348015600e575f5ffd5b50335f5f6101000a81548173ffffffffffffffffffffffffffffffffffffffff021916908373ffffffffffffffffffffffffffffffffffffffff1602179055506108948061005b5f395ff3fe608060405260043610610049575f3560e01c806327e235e31461004d5780638b7afe2e146100895780638da5cb5b146100b3578063d0e30db0146100dd578063f4970e71146100e7575b5f5ffd5b348015610058575f5ffd5b50610073600480360381019061006e91906104ee565b61010f565b6040516100809190610531565b60405180910390f35b348015610094575f5ffd5b5061009d610124565b6040516100aa9190610531565b60405180910390f35b3480156100be575f5ffd5b506100c761012b565b6040516100d49190610559565b60405180910390f35b6100e561014f565b005b3480156100f2575f5ffd5b5061010d6004803603810190610108919061059c565b610234565b005b6001602052805f5260405f205f915090505481565b5f47905090565b5f5f9054906101000a900473ffffffffffffffffffffffffffffffffffffffff1681565b5f3411610191576040517f08c379a000000000000000000000000000000000000000000000000000000000815260040161018890610634565b60405180910390fd5b3460015f3373ffffffffffffffffffffffffffffffffffffffff1673ffffffffffffffffffffffffffffffffffffffff1681526020019081526020015f205f8282546101dd919061067f565b925050819055503373ffffffffffffffffffffffffffffffffffffffff167f2da466a7b24304f47e87fa2e1e5a81b9831ce54fec19055ce277ca2f39ba42c43460405161022a9190610531565b60405180910390a2565b5f5f9054906101000a900473ffffffffffffffffffffffffffffffffffffffff1673ffffffffffffffffffffffffffffffffffffffff163373ffffffffffffffffffffffffffffffffffffffff16146102c2576040517f08c379a00000000000000000000000000000000000000000000000000000000081526004016102b9906106fc565b60405180910390fd5b8060015f8473ffffffffffffffffffffffffffffffffffffffff1673ffffffffffffffffffffffffffffffffffffffff1681526020019081526020015f20541015610342576040517f08c379a000000000000000000000000000000000000000000000000000000000815260040161033990610764565b60405180910390fd5b8060015f8473ffffffffffffffffffffffffffffffffffffffff1673ffffffffffffffffffffffffffffffffffffffff1681526020019081526020015f205f82825461038e9190610782565b925050819055505f8273ffffffffffffffffffffffffffffffffffffffff16826040516103ba906107e2565b5f6040518083038185875af1925050503d805f81146103f4576040519150601f19603f3d011682016040523d82523d5f602084013e6103f9565b606091505b505090508061043d576040517f08c379a000000000000000000000000000000000000000000000000000000000815260040161043490610840565b60405180910390fd5b8273ffffffffffffffffffffffffffffffffffffffff167f7084f5476618d8e60b11ef0d7d3f06914655adb8793e28ff7f018d4c76d505d5836040516104839190610531565b60405180910390a2505050565b5f5ffd5b5f73ffffffffffffffffffffffffffffffffffffffff82169050919050565b5f6104bd82610494565b9050919050565b6104cd816104b3565b81146104d7575f5ffd5b50565b5f813590506104e8816104c4565b92915050565b5f6020828403121561050357610502610490565b5b5f610510848285016104da565b91505092915050565b5f819050919050565b61052b81610519565b82525050565b5f6020820190506105445f830184610522565b92915050565b610553816104b3565b82525050565b5f60208201905061056c5f83018461054a565b92915050565b61057b81610519565b8114610585575f5ffd5b50565b5f8135905061059681610572565b92915050565b5f5f604083850312156105b2576105b1610490565b5b5f6105bf858286016104da565b92505060206105d085828601610588565b9150509250929050565b5f82825260208201905092915050565b7f4465706f736974206d7573742062652067726561746572207468616e203000005f82015250565b5f61061e601e836105da565b9150610629826105ea565b602082019050919050565b5f6020820190508181035f83015261064b81610612565b9050919050565b7f4e487b71000000000000000000000000000000000000000000000000000000005f52601160045260245ffd5b5f61068982610519565b915061069483610519565b92508282019050808211156106ac576106ab610652565b5b92915050565b7f4e6f7420617574686f72697a65640000000000000000000000000000000000005f82015250565b5f6106e6600e836105da565b91506106f1826106b2565b602082019050919050565b5f6020820190508181035f830152610713816106da565b9050919050565b7f496e73756666696369656e742062616c616e63650000000000000000000000005f82015250565b5f61074e6014836105da565b91506107598261071a565b602082019050919050565b5f6020820190508181035f83015261077b81610742565b9050919050565b5f61078c82610519565b915061079783610519565b92508282039050818111156107af576107ae610652565b5b92915050565b5f81905092915050565b50565b5f6107cd5f836107b5565b91506107d8826107bf565b5f82019050919050565b5f6107ec826107c2565b9150819050919050565b7f5472616e73666572206661696c656400000000000000000000000000000000005f82015250565b5f61082a600f836105da565b9150610835826107f6565b602082019050919050565b5f6020820190508181035f8301526108578161081e565b905091905056fea2646970667358221220eca2326e75adc078da5262c246286b9129dd31db503bbe5897f9898fa714569d64736f6c634300081c0033",
  "linkReferences": {},
  "deployedLinkReferences": {},
  "immutableReferences": {},
  "inputSourceName": "project/contracts/auction.sol",
  "buildInfoId": "solc-0_8_28-472472938f590261e7516cee505bf82460cd9a19"
}